{
    "contractName": "CropTraceability",
    "abi": [
        {
            "anonymous": false,
            "inputs": [
                {
                    "indexed": false,
                    "internalType": "string",
                    "name": "cropId",
                    "type": "string"
                },
                {
                    "indexed": false,
                    "internalType": "string",
                    "name": "cropType",
                    "type": "string"
                },
                {
                    "indexed": false,
                    "internalType": "string",
                    "name": "farmerName",
                    "type": "string"
                }
            ],
            "name": "CropRegistered",
            "type": "event"
        },
        {
            "anonymous": false,
            "inputs": [
                {
                    "indexed": false,
                    "internalType": "string",
                    "name": "cropId",
                    "type": "string"
                },
                {
                    "indexed": false,
                    "internalType": "string",
                    "name": "harvestDate",
                    "type": "string"
                }
            ],
            "name": "HarvestRecorded",
            "type": "event"
        },
        {
            "anonymous": false,
            "inputs": [
                {
                    "indexed": false,
                    "internalType": "string",
                    "name": "cropId",
                    "type": "string"
                },
                {
                    "indexed": false,
                    "internalType": "string",
                    "name": "status",
                    "type": "string"
                },
                {
                    "indexed": false,
                    "internalType": "string",
                    "name": "location",
                    "type": "string"
                },
                {
                    "indexed": false,
                    "internalType": "string",
                    "name": "actor",
                    "type": "string"
                }
            ],
            "name": "StatusUpdated",
            "type": "event"
        },
        {
            "inputs": [
                {
                    "internalType": "string",
                    "name": "cropId",
                    "type": "string"
                }
            ],
            "name": "getCrop",
            "outputs": [
                {
                    "internalType": "string",
                    "name": "",
                    "type": "string"
                },
                {
                    "internalType": "string",
                    "name": "",
                    "type": "string"
                },
                {
                    "internalType": "string",
                    "name": "",
                    "type": "string"
                },
                {
                    "internalType": "string",
                    "name": "",
                    "type": "string"
                },
                {
                    "internalType": "string",
                    "name": "",
                    "type": "string"
                }
            ],
            "stateMutability": "view",
            "type": "function"
        },
        {
            "inputs": [
                {
                    "internalType": "string",
                    "name": "cropId",
                    "type": "string"
                }
            ],
            "name": "getCropHistory",
            "outputs": [
                {
                    "internalType": "string[]",
                    "name": "statuses",
                    "type": "string[]"
                },
                {
                    "internalType": "string[]",
                    "name": "locations",
                    "type": "string[]"
                },
                {
                    "internalType": "string[]",
                    "name": "actors",
                    "type": "string[]"
                },
                {
                    "internalType": "uint256[]",
                    "name": "timestamps",
                    "type": "uint256[]"
                },
                {
                    "internalType": "string[]",
                    "name": "plantedDates",
                    "type": "string[]"
                },
                {
                    "internalType": "string[]",
                    "name": "harvestedDates",
                    "type": "string[]"
                }
            ],
            "stateMutability": "view",
            "type": "function"
        },
        {
            "inputs": [
                {
                    "internalType": "string",
                    "name": "cropId",
                    "type": "string"
                },
                {
                    "internalType": "string",
                    "name": "cropType",
                    "type": "string"
                },
                {
                    "internalType": "string",
                    "name": "farmerName",
                    "type": "string"
                },
                {
                    "internalType": "string",
                    "name": "datePlanted",
                    "type": "string"
                }
            ],
            "name": "registerCrop",
            "outputs": [],
            "stateMutability": "nonpayable",
            "type": "function"
        },
        {
            "inputs": [
                {
                    "internalType": "string",
                    "name": "cropId",
                    "type": "string"
                },
                {
                    "internalType": "string",
                    "name": "harvestDate",
                    "type": "string"
                }
            ],
            "name": "registerHarvest",
            "outputs": [],
            "stateMutability": "nonpayable",
            "type": "function"
        },
        {
            "inputs": [
                {
                    "internalType": "string",
                    "name": "cropId",
                    "type": "string"
                },
                {
                    "internalType": "string",
                    "name": "status",
                    "type": "string"
                },
                {
                    "internalType": "string",
                    "name": "location",
                    "type": "string"
                },
                {
                    "internalType": "string",
                    "name": "actor",
                    "type": "string"
                }
            ],
            "name": "updateStatus",
            "outputs": [],
            "stateMutability": "nonpayable",
            "type": "function"
        }
    ],
    "bytecode": "60808060405234601557611666908161001a8239f35b5f80fdfe60806040526004361015610011575f80fd5b5f3560e01c8063414f24f514610c4657806350935522146106af578063a1b51dc914610470578063f2b2412c146101695763f7f417f814610050575f80fd5b34610165577fdec0983af6d717eebab911a037604ffd732385ccae5caca0f30c0a5d6a16921561013661014461016061015261008b36610ddc565b9392959091610122876100c06100b96040516020818186519601958087835e81015f81520301902054610ebf565b15156115f3565b602060405180928b518091835e81015f8152030190206005604051916100e583610d27565b84835286602084015288604084015242606084015261010660038201610ef7565b608084015261011760048201610ef7565b60a084015201610fe6565b604051978897608089526080890190610db8565b908782036020890152610db8565b908582036040870152610db8565b908382036060850152610db8565b0390a1005b5f80fd5b34610165576040366003190112610165576004356001600160401b03811161016557610199903690600401610d63565b6024356001600160401b038111610165576101b8903690600401610d63565b90604051916101e06100b9835194602081818701978089835e81015f81520301902054610ebf565b610201600460405160208186518089835e81015f8152030190200154610ebf565b61042b57600460405160208185518088835e81015f8152030190200181516001600160401b038111610417576102378254610ebf565b601f81116103d2575b506020601f821160011461034c5791817f7f19b779b9e7f5829782df699000776f02575d943aa746bda0d7a3f27237fffc9692610160945f91610341575b508160011b915f199060031b1c19161790555b6020604051809286518091835e81015f815203019020916103206040516102b781610d27565b600560409586516102c88882610d42565b600981526812185c9d995cdd195960ba1b602082015283526102e8610f97565b60208401526102f960028201610ef7565b8784015242606084015261030f60038201610ef7565b60808401528460a084015201610fe6565b6103338351948486958652850190610db8565b908382036020850152610db8565b90508501518861027e565b601f19821690835f52805f20915f5b8181106103ba5750926101609492600192827f7f19b779b9e7f5829782df699000776f02575d943aa746bda0d7a3f27237fffc9a96106103a2575b5050811b019055610291565b8701515f1960f88460031b161c191690558880610396565b9192602060018192868a01518155019401920161035b565b825f5260205f20601f830160051c8101916020841061040d575b601f0160051c01905b8181106104025750610240565b5f81556001016103f5565b90915081906103ec565b634e487b7160e01b5f52604160045260245ffd5b60405162461bcd60e51b815260206004820152601860248201527f4861727665737420616c7265616479207265636f7264656400000000000000006044820152606490fd5b34610165576020366003190112610165576004356001600160401b038111610165576020806104a56005933690600401610d63565b604051928184925191829101835e81015f815203019020018054906104c982611596565b916104d381611596565b906104dd81611596565b6104e68261157f565b906104f46040519283610d42565b8282526105008361157f565b602083019490601f190136863761051684611596565b9361052081611596565b965f5b8281106105c9576105508a8a8a8a8a602061056b8c61055d8d6040519a8b9a60c08c5260c08c0190610e67565b908a8203868c0152610e67565b9088820360408a0152610e67565b91868303606088015251918281520192905f5b8181106105b0575050508161059e91856105ac9594036080870152610e67565b9083820360a0850152610e67565b0390f35b825185528796506020948501949092019160010161057e565b806105df6105d960019385610fb9565b50610ef7565b6105e9828d6115df565b526105f4818c6115df565b5061060a826106038386610fb9565b5001610ef7565b61061482876115df565b5261061f81866115df565b5061062f60026106038386610fb9565b61063982886115df565b5261064481876115df565b5060036106518285610fb9565b50015461065e82896115df565b5261066e60046106038386610fb9565b610678828a6115df565b5261068381896115df565b5061069360056106038386610fb9565b61069d828c6115df565b526106a8818b6115df565b5001610523565b34610165576106bd36610ddc565b906040939293516106e4845191602081818801948086835e81015f81520301902054610ebf565b610c01576020604051809286518091835e81015f8152030190209383516001600160401b038111610417576107198654610ebf565b601f8111610bbc575b50806020601f8211600114610b5b575f91610b50575b508160011b915f199060031b1c19161785555b6001850181516001600160401b038111610417576107698254610ebf565b601f8111610b0b575b50806020601f8211600114610aaa575f91610a9f575b508160011b915f199060031b1c19161790555b6002850182516001600160401b038111610417576107b98254610ebf565b601f8111610a5a575b50806020601f82116001146109f9575f916109ee575b508160011b915f199060031b1c19161790555b825194600381016001600160401b0387116104175761080a8154610ebf565b601f81116109a9575b50602096601f811160011461091757926108de61016095936108ff93866108f19a99977f5b6ff128c1ab84e4c94270466d057ec83dd5507afd22e954c87bfa346e37bf6a9c5f9161090c575b508160011b915f199060031b1c19161790555b60056040519161088183610d27565b60409788516108908a82610d42565b6007815266141b185b9d195960ca1b602082015284526108ae610f97565b60208501528789850152426060850152608084015287516108d0602082610d42565b5f815260a084015201610fe6565b8351968796606088526060880190610db8565b908682036020880152610db8565b9184830390850152610db8565b90508801518d61085f565b601f198116825f52885f20905f5b8181106109915750936108ff936001846108de947f5b6ff128c1ab84e4c94270466d057ec83dd5507afd22e954c87bfa346e37bf6a9d6108f19d9c9a976101609c9a10610979575b5050811b019055610872565b8a01515f1960f88460031b161c191690558d8061096d565b888b0151835560209a8b019a60019093019201610925565b815f5260205f20601f890160051c81019160208a106109e4575b601f0160051c01905b8181106109d95750610813565b5f81556001016109cc565b90915081906109c3565b9050840151886107d8565b5f8481528181209250601f198416905b818110610a4257509083600194939210610a2a575b5050811b0190556107eb565b8601515f1960f88460031b161c191690558880610a1e565b9192602060018192868b015181550194019201610a09565b825f5260205f20601f830160051c81019160208410610a95575b601f0160051c01905b818110610a8a57506107c2565b5f8155600101610a7d565b9091508190610a74565b905083015188610788565b5f8481528181209250601f198416905b818110610af357509083600194939210610adb575b5050811b01905561079b565b8501515f1960f88460031b161c191690558880610acf565b9192602060018192868a015181550194019201610aba565b825f5260205f20601f830160051c81019160208410610b46575b601f0160051c01905b818110610b3b5750610772565b5f8155600101610b2e565b9091508190610b25565b905085015187610738565b5f8881528181209250601f198416905b818110610ba457509083600194939210610b8c575b5050811b01855561074b565b8701515f1960f88460031b161c191690558780610b80565b9192602060018192868c015181550194019201610b6b565b865f5260205f20601f830160051c81019160208410610bf7575b601f0160051c01905b818110610bec5750610722565b5f8155600101610bdf565b9091508190610bd6565b60405162461bcd60e51b815260206004820152601760248201527f43726f7020616c726561647920726567697374657265640000000000000000006044820152606490fd5b34610165576020366003190112610165576004356001600160401b03811161016557602080610c7c610cef933690600401610d63565b604051928184925191829101835e81015f8152030190206105ac610c9f82610ef7565b91610d19610caf60018301610ef7565b91610d0b610cbf60028301610ef7565b610cfd610cda6004610cd360038701610ef7565b9501610ef7565b95604051998a9960a08b5260a08b0190610db8565b9089820360208b0152610db8565b908782036040890152610db8565b908582036060870152610db8565b908382036080850152610db8565b60c081019081106001600160401b0382111761041757604052565b90601f801991011681019081106001600160401b0382111761041757604052565b81601f82011215610165578035906001600160401b0382116104175760405192610d97601f8401601f191660200185610d42565b8284526020838301011161016557815f926020809301838601378301015290565b805180835260209291819084018484015e5f828201840152601f01601f1916010190565b906080600319830112610165576004356001600160401b0381116101655782610e0791600401610d63565b916024356001600160401b0381116101655781610e2691600401610d63565b916044356001600160401b0381116101655782610e4591600401610d63565b91606435906001600160401b03821161016557610e6491600401610d63565b90565b9080602083519182815201916020808360051b8301019401925f915b838310610e9257505050505090565b9091929394602080610eb0600193601f198682030187528951610db8565b97019301930191939290610e83565b90600182811c92168015610eed575b6020831014610ed957565b634e487b7160e01b5f52602260045260245ffd5b91607f1691610ece565b9060405191825f825492610f0a84610ebf565b8084529360018116908115610f755750600114610f31575b50610f2f92500383610d42565b565b90505f9291925260205f20905f915b818310610f59575050906020610f2f928201015f610f22565b6020919350806001915483858901015201910190918492610f40565b905060209250610f2f94915060ff191682840152151560051b8201015f610f22565b60405190610fa6604083610d42565b60048252634661726d60e01b6020830152565b8054821015610fd2575f52600660205f20910201905f90565b634e487b7160e01b5f52603260045260245ffd5b8054680100000000000000008110156104175761100891600182018155610fb9565b92909261156c5781519283516001600160401b0381116104175761102c8254610ebf565b601f8111611527575b50602094601f82116001146114c6579481929394955f926114bb575b50508160011b915f199060031b1c19161781555b6001810160208401518051906001600160401b03821161041757819061108b8454610ebf565b601f811161146b575b50602090601f8311600114611408575f926113fd575b50508160011b915f199060031b1c19161790555b6002810160408401518051906001600160401b0382116104175781906110e48454610ebf565b601f81116113ad575b50602090601f831160011461134a575f9261133f575b50508160011b915f199060031b1c19161790555b606083015160038201556004810160808401518051906001600160401b038211610417576111458354610ebf565b601f81116112fa575b50602090601f83116001146112915791806005949260a096945f92611286575b50508160011b915f199060031b1c19161790555b019201519182516001600160401b038111610417576111a18254610ebf565b601f8111611241575b506020601f82116001146111e357819293945f926111d8575b50508160011b915f199060031b1c1916179055565b015190505f806111c3565b601f19821690835f52805f20915f5b81811061122957509583600195969710611211575b505050811b019055565b01515f1960f88460031b161c191690555f8080611207565b9192602060018192868b0151815501940192016111f2565b825f5260205f20601f830160051c8101916020841061127c575b601f0160051c01905b81811061127157506111aa565b5f8155600101611264565b909150819061125b565b015190505f8061116e565b90601f19831691845f52815f20925f5b8181106112e2575092600192859260a0989660059896106112ca575b505050811b019055611182565b01515f1960f88460031b161c191690555f80806112bd565b929360206001819287860151815501950193016112a1565b835f5260205f20601f840160051c81019160208510611335575b601f0160051c01905b81811061132a575061114e565b5f815560010161131d565b9091508190611314565b015190505f80611103565b5f8581528281209350601f198516905b818110611395575090846001959493921061137d575b505050811b019055611117565b01515f1960f88460031b161c191690555f8080611370565b9293602060018192878601518155019501930161135a565b909150835f5260205f20601f840160051c810191602085106113f3575b90601f859493920160051c01905b8181106113e557506110ed565b5f81558493506001016113d8565b90915081906113ca565b015190505f806110aa565b5f8581528281209350601f198516905b818110611453575090846001959493921061143b575b505050811b0190556110be565b01515f1960f88460031b161c191690555f808061142e565b92936020600181928786015181550195019301611418565b909150835f5260205f20601f840160051c810191602085106114b1575b90601f859493920160051c01905b8181106114a35750611094565b5f8155849350600101611496565b9091508190611488565b015190505f80611051565b601f19821695835f52805f20915f5b88811061150f575083600195969798106114f7575b505050811b018155611065565b01515f1960f88460031b161c191690555f80806114ea565b919260206001819286850151815501940192016114d5565b825f5260205f20601f830160051c81019160208410611562575b601f0160051c01905b8181106115575750611035565b5f815560010161154a565b9091508190611541565b634e487b7160e01b5f525f60045260245ffd5b6001600160401b0381116104175760051b60200190565b906115a08261157f565b6115ad6040519182610d42565b82815280926115be601f199161157f565b01905f5b8281106115ce57505050565b8060606020809385010152016115c2565b8051821015610fd25760209160051b010190565b156115fa57565b60405162461bcd60e51b815260206004820152600e60248201526d10dc9bdc081b9bdd08199bdd5b9960921b6044820152606490fdfea26469706673582212204f992780750033fd202f458ba0a1e3fc1259ad598d53a51927684e91dac761cd64736f6c634300081e0033",
    "sourcePath": "c:/Users/Hrishikesh/Downloads/blockchain_crop_traceability_flask/blockchain_crop_traceability_flask/traceproduct.sol",
    "compiler": {
        "name": "solc",
        "version": "0.8.30+commit.73712a01"
    },
    "functionHashes": {
        "getCrop(string)": "414f24f5",
        "getCropHistory(string)": "a1b51dc9",
        "registerCrop(string,string,string,string)": "50935522",
        "registerHarvest(string,string)": "f2b2412c",
        "updateStatus(string,string,string,string)": "f7f417f8"
    },
    "gasEstimates": {
        "creation": {
            "codeDepositCost": "1146800",
            "executionCost": "1203",
            "totalCost": "1148003"
        },
        "external": {
            "getCrop(string)": "infinite",
            "getCropHistory(string)": "infinite",
            "registerCrop(string,string,string,string)": "infinite",
            "registerHarvest(string,string)": "infinite",
            "updateStatus(string,string,string,string)": "infinite"
        }
    }
}